{
  "contractName": "Voting",
  "abi": [
    {
      "anonymous": false,
      "inputs": [
        {
          "indexed": false,
          "internalType": "string",
          "name": "candidate",
          "type": "string"
        }
      ],
      "name": "Voted",
      "type": "event"
    },
    {
      "anonymous": false,
      "inputs": [],
      "name": "VotingEnded",
      "type": "event"
    },
    {
      "anonymous": false,
      "inputs": [],
      "name": "VotingStarted",
      "type": "event"
    },
    {
      "constant": true,
      "inputs": [],
      "name": "adminPassword",
      "outputs": [
        {
          "internalType": "string",
          "name": "",
          "type": "string"
        }
      ],
      "payable": false,
      "stateMutability": "view",
      "type": "function"
    },
    {
      "constant": true,
      "inputs": [],
      "name": "adminUsername",
      "outputs": [
        {
          "internalType": "string",
          "name": "",
          "type": "string"
        }
      ],
      "payable": false,
      "stateMutability": "view",
      "type": "function"
    },
    {
      "constant": true,
      "inputs": [
        {
          "internalType": "uint256",
          "name": "",
          "type": "uint256"
        }
      ],
      "name": "candidateList",
      "outputs": [
        {
          "internalType": "string",
          "name": "",
          "type": "string"
        }
      ],
      "payable": false,
      "stateMutability": "view",
      "type": "function"
    },
    {
      "constant": true,
      "inputs": [
        {
          "internalType": "bytes32",
          "name": "",
          "type": "bytes32"
        }
      ],
      "name": "votesReceived",
      "outputs": [
        {
          "internalType": "uint256",
          "name": "",
          "type": "uint256"
        }
      ],
      "payable": false,
      "stateMutability": "view",
      "type": "function"
    },
    {
      "constant": true,
      "inputs": [],
      "name": "votingStarted",
      "outputs": [
        {
          "internalType": "bool",
          "name": "",
          "type": "bool"
        }
      ],
      "payable": false,
      "stateMutability": "view",
      "type": "function"
    },
    {
      "constant": false,
      "inputs": [],
      "name": "startVoting",
      "outputs": [],
      "payable": false,
      "stateMutability": "nonpayable",
      "type": "function"
    },
    {
      "constant": false,
      "inputs": [],
      "name": "endVoting",
      "outputs": [],
      "payable": false,
      "stateMutability": "nonpayable",
      "type": "function"
    },
    {
      "constant": true,
      "inputs": [
        {
          "internalType": "string",
          "name": "candidate",
          "type": "string"
        }
      ],
      "name": "totalVotesFor",
      "outputs": [
        {
          "internalType": "uint256",
          "name": "",
          "type": "uint256"
        }
      ],
      "payable": false,
      "stateMutability": "view",
      "type": "function"
    },
    {
      "constant": false,
      "inputs": [
        {
          "internalType": "string",
          "name": "candidate",
          "type": "string"
        }
      ],
      "name": "voteForCandidate",
      "outputs": [],
      "payable": false,
      "stateMutability": "nonpayable",
      "type": "function"
    },
    {
      "constant": true,
      "inputs": [
        {
          "internalType": "string",
          "name": "candidate",
          "type": "string"
        }
      ],
      "name": "isValidCandidate",
      "outputs": [
        {
          "internalType": "bool",
          "name": "",
          "type": "bool"
        }
      ],
      "payable": false,
      "stateMutability": "view",
      "type": "function"
    },
    {
      "constant": true,
      "inputs": [
        {
          "internalType": "string",
          "name": "_username",
          "type": "string"
        },
        {
          "internalType": "string",
          "name": "_password",
          "type": "string"
        }
      ],
      "name": "authenticateAdmin",
      "outputs": [
        {
          "internalType": "bool",
          "name": "",
          "type": "bool"
        }
      ],
      "payable": false,
      "stateMutability": "view",
      "type": "function"
    }
  ],
  "bytecode": "0x600b6101009081526a596173682054686f72766560a81b610120526080908152600c6101408181526b526f68616e205368696e646560a01b6101605260a05260106101809081526f5669736877616a6565742054756c736560801b6101a05260c0526102006040526101c09081526b42686176657368205475736560a01b6101e05260e0526200009490600190600462000115565b506002805460ff191690556040805180820190915260058082526420b236b4b760d91b6020909201918252620000cd9160039162000179565b506040805180820190915260098082526841646d696e4031323360b81b6020909201918252620001009160049162000179565b503480156200010e57600080fd5b506200028d565b82805482825590600052602060002090810192821562000167579160200282015b828111156200016757825180516200015691849160209091019062000179565b509160200191906001019062000136565b5062000175929150620001fa565b5090565b828054600181600116156101000203166002900490600052602060002090601f016020900481019282601f10620001bc57805160ff1916838001178555620001ec565b82800160010185558215620001ec579182015b82811115620001ec578251825591602001919060010190620001cf565b506200017592915062000225565b6200022291905b808211156200017557600062000218828262000242565b5060010162000201565b90565b6200022291905b808211156200017557600081556001016200022c565b50805460018160011615610100020316600290046000825580601f106200026a57506200028a565b601f0160209004906000526020600020908101906200028a919062000225565b50565b610cb6806200029d6000396000f3fe608060405234801561001057600080fd5b50600436106100a95760003560e01c80636c6fb448116100715780636c6fb448146103cc5780637021939f146103d457806383d948b7146103f1578063b13c744b146103f9578063c3403ddf14610416578063e89927ef1461041e576100a9565b80631ec6b60a146100ae5780633044b164146100b85780634a3bf377146101f557806351b9887d146102ab5780636b49eb0f1461034f575b600080fd5b6100b66104c2565b005b6101e1600480360360408110156100ce57600080fd5b810190602081018135600160201b8111156100e857600080fd5b8201836020820111156100fa57600080fd5b803590602001918460018302840111600160201b8311171561011b57600080fd5b91908080601f0160208091040260200160405190810160405280939291908181526020018383808284376000920191909152509295949360208101935035915050600160201b81111561016d57600080fd5b82018360208201111561017f57600080fd5b803590602001918460018302840111600160201b831117156101a057600080fd5b91908080601f016020809104026020016040519081016040528093929190818152602001838380828437600092019190915250929550610552945050505050565b604080519115158252519081900360200190f35b6102996004803603602081101561020b57600080fd5b810190602081018135600160201b81111561022557600080fd5b82018360208201111561023757600080fd5b803590602001918460018302840111600160201b8311171561025857600080fd5b91908080601f01602080910402602001604051908101604052809392919081815260200183838082843760009201919091525092955061065d945050505050565b60408051918252519081900360200190f35b6101e1600480360360208110156102c157600080fd5b810190602081018135600160201b8111156102db57600080fd5b8201836020820111156102ed57600080fd5b803590602001918460018302840111600160201b8311171561030e57600080fd5b91908080601f016020809104026020016040519081016040528093929190818152602001838380828437600092019190915250929550610793945050505050565b6103576108c0565b6040805160208082528351818301528351919283929083019185019080838360005b83811015610391578181015183820152602001610379565b50505050905090810190601f1680156103be5780820380516001836020036101000a031916815260200191505b509250505060405180910390f35b61035761094e565b610299600480360360208110156103ea57600080fd5b50356109a9565b6101e16109bb565b6103576004803603602081101561040f57600080fd5b50356109c4565b6100b6610a37565b6100b66004803603602081101561043457600080fd5b810190602081018135600160201b81111561044e57600080fd5b82018360208201111561046057600080fd5b803590602001918460018302840111600160201b8311171561048157600080fd5b91908080601f016020809104026020016040519081016040528093929190818152602001838380828437600092019190915250929550610abf945050505050565b60025460ff161561051a576040805162461bcd60e51b815260206004820152601960248201527f566f74696e6720697320616c7265616479207374617274656400000000000000604482015290519081900360640190fd5b6002805460ff191660011790556040517f877e2548498f42b7975a186b94ef1d32c86d420b7b806dd2be2bea293b89590490600090a1565b60038054604080516020601f600260001961010060018816150201909516949094049384018190048102820181019092528281526000936105ea9387938301828280156105e05780601f106105b5576101008083540402835291602001916105e0565b820191906000526020600020905b8154815290600101906020018083116105c357829003601f168201915b5050505050610bf9565b801561065457506004805460408051602060026001851615610100026000190190941693909304601f8101849004840282018401909252818152610654938693919290918301828280156105e05780601f106105b5576101008083540402835291602001916105e0565b90505b92915050565b600080826040516020018082805190602001908083835b602083106106935780518252601f199092019160209182019101610674565b6001836020036101000a038019825116818451168082178552505050505050905001915050604051602081830303815290604052805190602001209050600260009054906101000a900460ff1615610729576040805162461bcd60e51b8152602060048201526014602482015273566f74696e6720697320696e2070726f6365737360601b604482015290519081900360640190fd5b61073283610793565b61077c576040805162461bcd60e51b815260206004820152601660248201527510d85b991a59185d19481a5cc81b9bdd081d985b1a5960521b604482015290519081900360640190fd5b60009081526020819052604090205490505b919050565b6000805b6001548110156108b757826040516020018082805190602001908083835b602083106107d45780518252601f1990920191602091820191016107b5565b6001836020036101000a038019825116818451168082178552505050505050905001915050604051602081830303815290604052805190602001206001828154811061081c57fe5b9060005260206000200160405160200180828054600181600116156101000203166002900480156108845780601f10610862576101008083540402835291820191610884565b820191906000526020600020905b815481529060010190602001808311610870575b50509150506040516020818303038152906040528051906020012014156108af57600191505061078e565b600101610797565b50600092915050565b6004805460408051602060026001851615610100026000190190941693909304601f810184900484028201840190925281815292918301828280156109465780601f1061091b57610100808354040283529160200191610946565b820191906000526020600020905b81548152906001019060200180831161092957829003601f168201915b505050505081565b6003805460408051602060026001851615610100026000190190941693909304601f810184900484028201840190925281815292918301828280156109465780601f1061091b57610100808354040283529160200191610946565b60006020819052908152604090205481565b60025460ff1681565b600181815481106109d157fe5b600091825260209182902001805460408051601f60026000196101006001871615020190941693909304928301859004850281018501909152818152935090918301828280156109465780601f1061091b57610100808354040283529160200191610946565b60025460ff16610a8a576040805162461bcd60e51b8152602060048201526019602482015278159bdd1a5b99c81a5cc81b9bdd081cdd185c9d1959081e595d603a1b604482015290519081900360640190fd5b6002805460ff191690556040517f7a19ed057db79e3c2fa0b97a54b43bef4fce74b31bb6c01af514b9a18a7f70ab90600090a1565b6000816040516020018082805190602001908083835b60208310610af45780518252601f199092019160209182019101610ad5565b6001836020036101000a038019825116818451168082178552505050505050905001915050604051602081830303815290604052805190602001209050600260009054906101000a900460ff16610b8e576040805162461bcd60e51b8152602060048201526019602482015278159bdd1a5b99c81a5cc81b9bdd081cdd185c9d1959081e595d603a1b604482015290519081900360640190fd5b610b9782610793565b610be1576040805162461bcd60e51b815260206004820152601660248201527510d85b991a59185d19481a5cc81b9bdd081d985b1a5960521b604482015290519081900360640190fd5b60009081526020819052604090208054600101905550565b805182516000918491849114610c1457600092505050610657565b60005b8251811015610c7557818181518110610c2c57fe5b602001015160f81c60f81b6001600160f81b031916838281518110610c4d57fe5b01602001516001600160f81b03191614610c6d5760009350505050610657565b600101610c17565b5060019594505050505056fea265627a7a723158201f111b1f6fc436af568cbaac9b79a722747ba64d9268a86789da29698097874564736f6c63430005100032",
  "source": "pragma solidity ^0.5.0;\r\n\r\ncontract Voting {\r\n    mapping(bytes32 => uint256) public votesReceived;\r\n    string[] public candidateList = [\"Yash Thorve\",\"Rohan Shinde\",\"Vishwajeet Tulse\",\"Bhavesh Tuse\"];\r\n    bool public votingStarted = false;\r\n    string public adminUsername = \"Admin\";\r\n    string public adminPassword = \"Admin@123\";\r\n\r\n    event Voted(string candidate);\r\n    event VotingStarted();\r\n    event VotingEnded();\r\n\r\n    // Function to start the voting process\r\n    function startVoting() public {\r\n        require(!votingStarted, \"Voting is already started\");\r\n        votingStarted = true;\r\n        emit VotingStarted();\r\n    }\r\n\r\n    // Function to end the voting process\r\n    function endVoting() public {\r\n        require(votingStarted, \"Voting is not started yet\");\r\n        votingStarted = false;\r\n        emit VotingEnded();\r\n    }\r\n\r\n    // Function to get total votes for a candidate\r\n    function totalVotesFor(\r\n        string memory candidate\r\n    ) public view returns (uint256) {\r\n        bytes32 candidateBytes = keccak256(abi.encodePacked(candidate));\r\n        require(!votingStarted, \"Voting is in process\");\r\n        require(isValidCandidate(candidate), \"Candidate is not valid\");\r\n        return votesReceived[candidateBytes];\r\n    }\r\n\r\n    // Function to vote for a candidate\r\n    function voteForCandidate(string memory candidate) public {\r\n        bytes32 candidateBytes = keccak256(abi.encodePacked(candidate));\r\n        require(votingStarted, \"Voting is not started yet\");\r\n        require(isValidCandidate(candidate), \"Candidate is not valid\");\r\n        votesReceived[candidateBytes]++;\r\n    }\r\n\r\n    // Function to check if the candidate is valid\r\n    function isValidCandidate(\r\n        string memory candidate\r\n    ) public view returns (bool) {\r\n        for (uint256 i = 0; i < candidateList.length; i++) {\r\n            if (\r\n                keccak256(abi.encodePacked(candidateList[i])) ==\r\n                keccak256(abi.encodePacked(candidate))\r\n            ) {\r\n                return true;\r\n            }\r\n        }\r\n        return false;\r\n    }\r\n\r\n    // Function to check if the input username and password match the stored values\r\n    function authenticateAdmin(\r\n        string memory _username,\r\n        string memory _password\r\n    ) public view returns (bool) {\r\n        return (stringsEqual(_username, adminUsername) &&\r\n            stringsEqual(_password, adminPassword));\r\n    }\r\n\r\n\r\n    // Helper function to compare strings\r\n    function stringsEqual(\r\n        string memory a,\r\n        string memory b\r\n    ) internal pure returns (bool) {\r\n        bytes memory ba = bytes(a);\r\n        bytes memory bb = bytes(b);\r\n        if (ba.length != bb.length) {\r\n            return false;\r\n        }\r\n        for (uint256 i = 0; i < ba.length; i++) {\r\n            if (ba[i] != bb[i]) {\r\n                return false;\r\n            }\r\n        }\r\n        return true;\r\n    }\r\n}\r\n",
  "sourcePath": "E:\\GITBUB 2\\FinalProject\\Back End\\contracts\\Voting.sol",
  "compiler": {
    "name": "solc",
    "version": "0.5.16+commit.9c3226ce.Emscripten.clang"
  },
  "schemaVersion": "3.4.16",
  "updatedAt": "2025-01-16T16:58:10.164Z",
  "networkType": "ethereum",
  "devdoc": {
    "methods": {}
  },
  "userdoc": {
    "methods": {}
  }
}